:100000000C9472000C9484000C9484000C94840072
:100010000C9484000C9484000C9484000C94840050
:100020000C9484000C9484000C9484000C94840040
:100030000C9484000C9484000C9484000C94840030
:100040000C9484000C9484000C9484000C94840020
:100050000C9484000C9484000C9484000C94840010
:100060000C9484000C9484000C9484000C94840000
:100070000C9484000C9484000C9484000C948400F0
:100080000C9484000C9484000C9484000C948400E0
:100090000C9484000C9484000C9484000C948400D0
:1000A0000C9484000C9484000C9484000C948400C0
:1000B0000C9484000C9484000C9484000C948400B0
:1000C0000C9484000C9484000C9484000C94DD0047
:1000D0000C9484000C94FB000C9484000C94840019
:1000E0000C94840011241FBECFEFD1E2DEBFCDBF40
:1000F00012E0A0E0B2E001C01D92A630B107E1F726
:100100000E9486000C9411010C9400008FEB90E08B
:100110000E94900078948FEF87B90E94BE00FDCFB7
:100120009093D5008093D400E0EDF0E08081826070
:100130008083E1EDF0E08081886D808386E08093AC
:10014000D20081E090E09093050280930402109227
:1001500002021092010208952091040230910502DA
:100160002115310551F09091D00095FFFCCF80937F
:10017000D6001092050210920402089580910102A7
:1001800090910202009719F080910302089580E097
:100190000895EF92FF92CF93DF93E82EE7017E015F
:1001A000F92EE70102C00E94AC0089918823D9F79B
:1001B000DF91CF91FF90EF9008951F920F920FB6AD
:1001C0000F9211248F939F938091D00087FFFCCFD3
:1001D00081E090E090930202809301028AEA88B95C
:1001E0008091D600809303029F918F910F900FBE54
:1001F0000F901F9018951F920F920FB60F92112417
:100200008F939F938AEA88B981E090E090930502EA
:10021000809304029F918F910F900FBE0F901F90BB
:060220001895F894FFCFD1
:00000001FF
