:100000000C9472000C9484000C9484000C94840072
:100010000C9484000C9484000C9484000C94840050
:100020000C9484000C9484000C9484000C94840040
:100030000C9484000C9484000C9484000C94840030
:100040000C9484000C94A7020C9484000C948400FB
:100050000C9484000C9484000C9484000C94840010
:100060000C9484000C9484000C9484000C94840000
:100070000C9484000C94C5020C9484000C948400AD
:100080000C9484000C9484000C9484000C948400E0
:100090000C9484000C9484000C9484000C948400D0
:1000A0000C9484000C9484000C9484000C948400C0
:1000B0000C9484000C9484000C9484000C948400B0
:1000C0000C9484000C9484000C9484000C94CF0055
:1000D0000C9484000C9484000C9484000C94840090
:1000E0000C94840011241FBECFEFD1E2DEBFCDBF40
:1000F00012E0A0E0B2E001C01D92A834B107E1F720
:100100000E9486000C940D030C9400008FEF87B9B9
:100110008FEA88B98FEB90E00E9496000E949602C9
:100120000E94B50278940E946702FDCF9093D5009B
:100130008093D400E0EDF0E0808182608083E1ED87
:10014000F0E08081886D808386E08093D2001092F9
:100150001A02109219021092430208959091D00051
:1001600095FFFCCF8093D6000895EF92FF920F93F6
:100170001F93CF93DF93EC017B0100E010E005C0FB
:1001800089910E94AE000F5F1F4F0E151F05C4F32B
:10019000DF91CF911F910F91FF90EF9008951F92E3
:1001A0000F920FB60F9211242F938F939F93EF937B
:1001B000FF938091D00087FFFCCF8091190290912E
:1001C0001A02843191058CF42091D600FC01E15D86
:1001D000FD4F2083019690931A0280931902843177
:1001E000910519F481E080934302FF91EF919F9173
:1001F0008F912F910F900FBE0F901F9018955F92C7
:100200006F927F928F929F92AF92BF92CF92DF9226
:10021000EF92FF920F931F93DF93CF93CDB7DEB78B
:1002200064970FB6F894DEBF0FBECDBF9C01FE01F0
:100230003196AE014B5E5F4F8F01D9016D919D01EB
:10024000D8016D938D01A417B507B9F743E1842E4A
:10025000912C8E0E9F1E30E8632E712C2BEA522EAD
:100260006FEF70E068C0A080AA2DB0E0B22E6301ED
:10027000022E02C0D594C7940A94E2F7CA22DB2268
:10028000C114D10409F44BC0022E02C0AA0FBB1F37
:100290000A94E2F7022F222351F0E180FF24042E7A
:1002A00002C0F594E7940A94E2F7BE2D01C0B0E0D5
:1002B000AB0FA525C180B0E0002389F47D010B2C94
:1002C00002C0F594E7940A94E2F7E082DB0102C0F1
:1002D000B595A795BA94E2F7AC21A18320C07D0122
:1002E0000B2C02C0F594E7940A94E2F78B01042EDC
:1002F00002C0000F111F0A94E2F70A210E290083A1
:10030000042E02C0AA0FBB1F0A94E2F78B0102C0A1
:1003100015950795BA94E2F70C210A2B01832F5FFC
:100320003F4F415050402830310509F09CCF319665
:10033000E815F90529F048E050E020E030E093CFDF
:100340002C89FC01238B64960FB6F894DEBF0FBE98
:10035000CDBFCF91DF911F910F91FF90EF90DF9074
:10036000CF90BF90AF909F908F907F906F905F9055
:100370000895FC01138A0E94FF000895CF93DF9334
:10038000EC010E94FF0081E09B89911180E0DF91E8
:10039000CF91089580914302813029F58FE292E058
:1003A0000E94BE01813051F484E780931B028BE1EF
:1003B00092E00E94B9010E94F40109C086E6809390
:1003C0001B020E94F4018BE192E00E94B9018BE1D3
:1003D00092E064E170E00E94B50010924302109236
:1003E0001A02109219020895E2E4F2E0ACE1B2E0E0
:1003F00082918D9382E0E033F807D1F708958091E0
:100400000A0280931C028091100280931D02809149
:10041000110280931F028091120280932102809129
:10042000130280932302809114028093250280910D
:10043000150280932702089580913E02809317024F
:100440001092180280FF0CC0E2E0F2E090913002BE
:1004500090930202909131029183909132029283A3
:1004600081FF0CC090913302909305029091340269
:1004700090930602909135029093070282FF08C084
:10048000909136029093080290913702909309025E
:1004900083FF04C090913A0290930D0284FF04C040
:1004A0009091390290930C0285FF04C09091300224
:1004B00090930D0286FF04C090913B0290930E0230
:1004C00087FF04C080913C0280930F0208950F9330
:1004D0001F930BEB1AEA80914302813011F58FE2F2
:1004E00092E00E94BE01813029F40E941C02109308
:1004F0001B0202C000931B020E94F4010E94FF0134
:100500008BE192E00E94B9018BE192E064E170E03E
:100510000E94B5001092430210921A021092190222
:10052000DACF0E9404030E94F401D5CF85E08093C6
:10053000810082E08093890090ED90938800809301
:100540006F0086BB109285001092840008951F9260
:100550000F920FB60F921124109285001092840012
:100560000F900FBE0F901F90189588E880937A0027
:1005700080E480937C0081E0809345020895EAE75F
:10058000F0E080818064808308951F920F920FB6FF
:100590000F9211242F933F934F938F939F938091AA
:1005A0007800109247021092460280914602909184
:1005B000470240917900342F20E0820F931F9093DF
:1005C00047028093460281E08093450280910002B9
:1005D00090910102009749F48FE088B981E090E0A2
:1005E000909301028093000205C018B81092010296
:1005F000109200029F918F914F913F912F910F90F8
:100600000FBE0F901F90189580914502813021F404
:0E061000109245020E94BF020895F894FFCF99
:00000001FF
