:100000000C9472000C9484000C9484000C94840072
:100010000C9484000C9484000C9484000C94840050
:100020000C9484000C9484000C9484000C94840040
:100030000C9484000C9484000C9484000C94840030
:100040000C9484000C94A9020C9484000C948400F9
:100050000C9484000C9484000C9484000C94840010
:100060000C9484000C9484000C9484000C94840000
:100070000C9484000C94C7020C9484000C948400AB
:100080000C9484000C9484000C9484000C948400E0
:100090000C9484000C9484000C9484000C948400D0
:1000A0000C9484000C9484000C9484000C948400C0
:1000B0000C9484000C9484000C9484000C948400B0
:1000C0000C9484000C9484000C9484000C94CF0055
:1000D0000C9484000C9484000C9484000C94840090
:1000E0000C94840011241FBECFEFD1E2DEBFCDBF40
:1000F00012E0A0E0B2E001C01D92A934B107E1F71F
:100100000E9486000C9417030C9400008FEF87B9AF
:100110008FEA88B98FEB90E00E9496000E949802C7
:100120000E94B70278940E946702FDCF9093D50099
:100130008093D400E0EDF0E0808182608083E1ED87
:10014000F0E08081886D808386E08093D2001092F9
:100150001B0210921A021092440208959091D0004E
:1001600095FFFCCF8093D6000895EF92FF920F93F6
:100170001F93CF93DF93EC017B0100E010E005C0FB
:1001800089910E94AE000F5F1F4F0E151F05C4F32B
:10019000DF91CF911F910F91FF90EF9008951F92E3
:1001A0000F920FB60F9211242F938F939F93EF937B
:1001B000FF938091D00087FFFCCF80911A0290912D
:1001C0001B02843191058CF42091D600FC01E05D86
:1001D000FD4F2083019690931B0280931A02843175
:1001E000910519F481E080934402FF91EF919F9172
:1001F0008F912F910F900FBE0F901F9018955F92C7
:100200006F927F928F929F92AF92BF92CF92DF9226
:10021000EF92FF920F931F93DF93CF93CDB7DEB78B
:1002200064970FB6F894DEBF0FBECDBF9C01FE01F0
:100230003196AE014B5E5F4F8F01D9016D919D01EB
:10024000D8016D938D01A417B507B9F743E1842E4A
:10025000912C8E0E9F1E30E8632E712C2BEA522EAD
:100260006FEF70E068C0A080AA2DB0E0B22E6301ED
:10027000022E02C0D594C7940A94E2F7CA22DB2268
:10028000C114D10409F44BC0022E02C0AA0FBB1F37
:100290000A94E2F7022F222351F0E180FF24042E7A
:1002A00002C0F594E7940A94E2F7BE2D01C0B0E0D5
:1002B000AB0FA525C180B0E0002389F47D010B2C94
:1002C00002C0F594E7940A94E2F7E082DB0102C0F1
:1002D000B595A795BA94E2F7AC21A18320C07D0122
:1002E0000B2C02C0F594E7940A94E2F78B01042EDC
:1002F00002C0000F111F0A94E2F70A210E290083A1
:10030000042E02C0AA0FBB1F0A94E2F78B0102C0A1
:1003100015950795BA94E2F70C210A2B01832F5FFC
:100320003F4F415050402830310509F09CCF319665
:10033000E815F90529F048E050E020E030E093CFDF
:100340002C89FC01238B64960FB6F894DEBF0FBE98
:10035000CDBFCF91DF911F910F91FF90EF90DF9074
:10036000CF90BF90AF909F908F907F906F905F9055
:100370000895FC01138A0E94FF000895CF93DF9334
:10038000EC010E94FF0081E09B89911180E0DF91E8
:10039000CF91089580914402813029F580E392E065
:1003A0000E94BE01813051F484E780931C028CE1ED
:1003B00092E00E94B9010E94F40109C086E6809390
:1003C0001C020E94F4018CE192E00E94B9018CE1D0
:1003D00092E064E170E00E94B50010924402109235
:1003E0001B0210921A020895E3E4F2E0ADE1B2E0DC
:1003F00082918D9382E0E133F807D1F708958091DF
:100400000B0280931D028091110280931E02809145
:100410001202809320028091130280932202809125
:100420001402809324028091150280932602809109
:10043000160280932802089580913F02809318024B
:100440001092190280FF0CC0E2E0F2E090913102BC
:1004500090930202909132029183909133029283A1
:1004600081FF0CC090913402909305029091350267
:1004700090930602909136029093070282FF08C083
:10048000909137029093080290913802909309025C
:1004900083FF04C090913B0290930E0284FF04C03E
:1004A00090913A0290930D0285FF04C09091310221
:1004B00090930E0286FF04C090913C0290930F022D
:1004C00087FF04C080913D028093100208950F932E
:1004D0001F930BEB1AEA80914402813021F580E3EF
:1004E00092E00E94BE01813029F40E941C02109308
:1004F0001C0202C000931C020E9406030E94F40129
:100500000E94FF018CE192E00E94B9018CE192E02F
:1005100064E170E00E94B5001092440210921B0248
:1005200010921A02D8CF0E9406030E94F401D3CF82
:1005300085E08093810082E08093890090ED909324
:10054000880080936F0086BB109285001092840013
:1005500008951F920F920FB60F92112410928500EA
:10056000109284000F900FBE0F901F90189588E88E
:1005700080937A0080E480937C0081E0809346023F
:100580000895EAE7F0E080818064808308951F92F7
:100590000F920FB60F9211242F933F934F938F9387
:1005A0009F938091780010924802109247028091A8
:1005B00047029091480240917900342F20E0820F49
:1005C000931F909348028093470281E080934602F4
:1005D0008091000290910102009749F48FE088B960
:1005E00081E090E0909301028093000205C018B86A
:1005F00010920102109200029F918F914F913F91B2
:100600002F910F900FBE0F901F901895809146026A
:10061000813061F4809147029091480290930C02DE
:1006200080930B02109246020E94C1020895F89432
:02063000FFCFFA
:00000001FF
