:100000000C9472000C948F000C948F000C948F0051
:100010000C948F000C948F000C948F000C948F0024
:100020000C948F000C948F000C948F000C948F0014
:100030000C948F000C948F000C948F000C948F0004
:100040000C948F000C948F000C948F000C948F00F4
:100050000C948F000C948F000C948F000C948F00E4
:100060000C948F000C948F000C948F000C948F00D4
:100070000C948F000C948F000C948F000C948F00C4
:100080000C948F000C948F000C948F000C948F00B4
:100090000C948F000C948F000C948F000C948F00A4
:1000A0000C948F000C948F000C948F000C948F0094
:1000B0000C948F000C948F000C948F000C948F0084
:1000C0000C948F000C948F000C948F000C94FF0004
:1000D0000C948F000C948F000C948F000C948F0064
:1000E0000C948F0011241FBECFEFD1E2DEBFCDBF35
:1000F00012E0A0E0B2E0E2EFF3E002C005900D9262
:10010000A031B107D9F712E0A0E1B2E001C01D9221
:10011000AE31B107E1F70E9491000C94F7010C9405
:1001200000008FEB90E00E94BD0078948FEF87B9BC
:1001300080911D028130D1F487E192E00E94EA01B2
:10014000882329F480E092E064E070E004C085E058
:1001500092E065E070E00E94E50010921D021092AE
:1001600011021092100280E090E008958BE092E07E
:1001700064E070E00E94E500DBCF9093D5008093AF
:10018000D400E0EDF0E0808182608083E1EDF0E07A
:100190008081886D808386E08093D20081E08093A7
:1001A0001A0210921B021092110210921002109269
:1001B0001D021092120208959091D00095FFFCCF7D
:1001C0008093D60010921A020895EF92FF920F9337
:1001D0001F93CF93DF93EC017B0100E010E005C09B
:1001E00089910E94DC000F5F1F4F0E151F05C4F39D
:1001F000DF91CF911F910F91FF90EF9008951F9283
:100200000F920FB60F9211242F933F938F939F93CA
:10021000EF93FF938091D00087FFFCCF21E02093E4
:100220001B023091D60030931C02809110029091F5
:1002300011028330910574F4FC01E95EFD4F3083B7
:10024000019690931102809310028330910511F46E
:1002500020931D02FF91EF919F918F913F912F91DC
:100260000F900FBE0F901F9018955F926F927F9224
:100270008F929F92AF92BF92CF92DF92EF92FF92B6
:100280000F931F93DF93CF9300D00F92CDB7DEB7BC
:10029000DC018C91898311968C9111978A83129637
:1002A0008C9112978B83FE01319623E0822E912C44
:1002B0008C0E9D1E90E8692E712C8BEA582E4FEF04
:1002C00050E067C0A0806A2D70E0B22E6301022E5C
:1002D00002C0D594C7940A94E2F7C622D722C1146B
:1002E000D10409F44BC0022E02C0660F771F0A9496
:1002F000E2F7022F222351F0E180FF24082E02C0F2
:10030000F594E7940A94E2F77E2D01C070E0670F40
:100310006525C18070E0002389F47B010B2C02C0AD
:10032000F594E7940A94E2F7E082BA0102C0759569
:100330006795BA94E2F76C21618320C07B010B2C96
:1003400002C0F594E7940A94E2F78A01082E02C0ED
:10035000000F111F0A94E2F70A210E290083082ECC
:1003600002C0660F771F0A94E2F78A0102C0159552
:100370000795BA94E2F70C21062B01832F5F3F4FBC
:1003800001972830310509F09DCF3196E815F90520
:1003900029F088E090E020E030E094CF8B81129645
:1003A0008C9312970F900F900F90CF91DF911F9128
:1003B0000F91FF90EF90DF90CF90BF90AF909F9004
:1003C0008F907F906F905F900895FC0112820E9441
:1003D00035010895CF93DF93EC010E94350181E050
:1003E0009A81992309F480E0DF91CF910895F894E0
:0203F000FFCF3D
:1003F200747275650066616C7365005965740A00F4
:00000001FF
