:100000000C9472000C948F000C948F000C948F0051
:100010000C948F000C948F000C948F000C948F0024
:100020000C948F000C948F000C948F000C948F0014
:100030000C948F000C948F000C948F000C948F0004
:100040000C948F000C948F000C948F000C948F00F4
:100050000C948F000C948F000C948F000C948F00E4
:100060000C948F000C948F000C948F000C948F00D4
:100070000C948F000C948F000C948F000C948F00C4
:100080000C948F000C948F000C948F000C948F00B4
:100090000C948F000C948F000C948F000C948F00A4
:1000A0000C948F000C948F000C948F000C948F0094
:1000B0000C948F000C948F000C948F000C948F0084
:1000C0000C948F000C948F000C948F000C94FD0006
:1000D0000C948F000C9433010C948F000C948F00BF
:1000E0000C948F0011241FBECFEFD1E2DEBFCDBF35
:1000F00012E0A0E0B2E0E8E8F2E002C005900D9264
:10010000A630B107D9F712E0A6E0B2E001C01D9217
:10011000A232B107E1F70E9491000C9442010C94C5
:1001200000008FEB90E00E94B20078948FEF87B9C7
:1001300080910D02813079F488E192E06AE070E00C
:100140000E94E30010920D0210920C0210920B021A
:1001500080E090E0089580E092E064E070E00E942A
:10016000E300E6CF9093D5008093D400E0EDF0E07B
:10017000808182608083E1EDF0E08081886D808302
:1001800086E08093D20081E08093090210920702FA
:1001900010920C0210920B0210920D0210920A02A1
:1001A00008959091D00095FFFCCF8093D6001092D7
:1001B0000902089580910702882319F080910802AE
:1001C000089580E00895EF92FF920F931F93CF93CD
:1001D000DF93EC017B0100E010E005C089910E94F3
:1001E000D1000F5F1F4F0E151F05C4F3DF91CF9194
:1001F0001F910F91FF90EF9008951F920F920FB6ED
:100200000F9211242F933F938F939F93EF93FF931C
:100210008091D00087FFFCCF21E02093070230912E
:10022000D6003093080280910B0290910C028A3024
:10023000910574F4FC01E85EFD4F308301969093C4
:100240000C0280930B028A30910511F420930D0269
:10025000FF91EF919F918F913F912F910F900FBE42
:100260000F901F9018951F920F920FB60F921124A6
:100270008F9381E0809309028F910F900FBE0F90B2
:080280001F901895F894FFCFC0
:060288005965740A000034
:00000001FF
