:100000000C9472000C948F000C948F000C948F0051
:100010000C948F000C948F000C948F000C948F0024
:100020000C948F000C948F000C948F000C948F0014
:100030000C948F000C948F000C948F000C948F0004
:100040000C948F000C948F000C948F000C948F00F4
:100050000C948F000C948F000C948F000C948F00E4
:100060000C948F000C948F000C948F000C948F00D4
:100070000C948F000C948F000C948F000C948F00C4
:100080000C948F000C948F000C948F000C948F00B4
:100090000C948F000C948F000C948F000C948F00A4
:1000A0000C948F000C948F000C948F000C948F0094
:1000B0000C948F000C948F000C948F000C948F0084
:1000C0000C948F000C948F000C948F000C948F0074
:1000D0000C948F000C948F000C948F000C948F0064
:1000E0000C948F0011241FBECFEFD1E2DEBFCDBF35
:1000F00012E0A0E0B2E0E8EEF1E002C005900D925F
:10010000A630B107D9F712E0A6E0B2E001C01D9217
:10011000AC30B107E1F70E9491000C94F2000C940E
:1001200000008FEB90E00E94A2008FEF87B90E9441
:10013000C300809588B980E092E064E070E00E949E
:10014000CA00F5CF9093D5008093D400E0EDF0E0A5
:10015000808182608083E1EDF0E08081886180832E
:1001600086E08093D20010920B0210920A02109245
:1001700008021092070208959091D00095FFFCCFDD
:100180008093D60008958091D00087FFFCCF8091A6
:10019000D6000895EF92FF92CF93DF93E82EE70108
:1001A0007E01F92EE70102C00E94BC0089918823DC
:1001B000D9F7DF91CF91FF90EF9008951F920F92A2
:1001C0000FB60F9211248F939F9381E090E090934C
:1001D0000B0280930A029F918F910F900FBE0F9098
:0801E0001F901895F894FFCF61
:0601E8006468676100007D
:00000001FF
