:100000000C9472000C948F000C948F000C948F0051
:100010000C948F000C948F000C948F000C948F0024
:100020000C948F000C948F000C948F000C948F0014
:100030000C948F000C948F000C948F000C948F0004
:100040000C948F000C948F000C948F000C948F00F4
:100050000C948F000C948F000C948F000C948F00E4
:100060000C948F000C948F000C948F000C948F00D4
:100070000C948F000C948F000C948F000C948F00C4
:100080000C948F000C948F000C948F000C948F00B4
:100090000C948F000C948F000C948F000C948F00A4
:1000A0000C948F000C948F000C948F000C948F0094
:1000B0000C948F000C948F000C948F000C948F0084
:1000C0000C948F000C948F000C948F000C94F4000F
:1000D0000C948F000C948F000C948F000C948F0064
:1000E0000C948F0011241FBECFEFD1E2DEBFCDBF35
:1000F00012E0A0E0B2E0E8E5F2E002C005900D9267
:10010000A630B107D9F712E0A6E0B2E001C01D9217
:10011000A431B107E1F70E9491000C942A010C94DC
:1001200000008FEB90E00E94B20078948FEF87B9C7
:1001300080911302813079F48DE092E063E070E009
:100140000E94DA0010921302109207021092060227
:1001500080E090E0089580E092E064E070E00E942A
:10016000DA00E6CF9093D5008093D400E0EDF0E084
:10017000808182608083E1EDF0E08081886D808302
:1001800086E08093D20081E08093100210921102E9
:1001900010920702109206021092130210920802A7
:1001A00008959091D00095FFFCCF8093D6001092D7
:1001B00010020895EF92FF920F931F93CF93DF9356
:1001C000EC017B0100E010E005C089910E94D100A4
:1001D0000F5F1F4F0E151F05C4F3DF91CF911F91C5
:1001E0000F91FF90EF9008951F920F920FB60F920C
:1001F00011242F933F938F939F93EF93FF938091BD
:10020000D00087FFFCCF21E0209311023091D6006F
:10021000309312028091060290910702833091057B
:1002200074F4FC01E35FFD4F308301969093070265
:10023000809306028330910511F420931302FF91FD
:10024000EF919F918F913F912F910F900FBE0F9043
:080250001F901895F894FFCFF0
:060258005965740A000064
:00000001FF
