:100000000C9472000C9484000C9484000C94840072
:100010000C9484000C9484000C9484000C94840050
:100020000C9484000C9484000C9484000C94840040
:100030000C9484000C9484000C9484000C94840030
:100040000C9484000C9484000C9484000C94840020
:100050000C9484000C9484000C9484000C94840010
:100060000C9484000C9484000C9484000C94840000
:100070000C9484000C9484000C9484000C948400F0
:100080000C9484000C9484000C9484000C948400E0
:100090000C9484000C9484000C9484000C948400D0
:1000A0000C9484000C9484000C9484000C948400C0
:1000B0000C9484000C9484000C9484000C948400B0
:1000C0000C9484000C9484000C9484000C94DE0046
:1000D0000C9484000C9484000C9484000C94840090
:1000E0000C94840011241FBECFEFD1E2DEBFCDBF40
:1000F00012E0A0E0B2E001C01D92AD30B107E1F71F
:100100000E9486000C9411020C9400000F931F9320
:100110008FEB90E00E94A5008FEF87B978940AEAF0
:1001200015E580910C02882371F087E092E065E08C
:1001300070E00E94C40008B910920C0210920102F3
:1001400010920002EECF18B9ECCF9093D5008093B7
:10015000D400E0EDF0E0808182608083E1EDF0E0AA
:100160008081886D808386E08093D20010920102A6
:100170001092000210920C0208959091D00095FF09
:10018000FCCF8093D6000895EF92FF920F931F93B8
:10019000CF93DF93EC017B0100E010E005C0899173
:1001A0000E94BD000F5F1F4F0E151F05C4F3DF91A6
:1001B000CF911F910F91FF90EF9008951F920F9292
:1001C0000FB60F9211242F938F939F93EF93FF936A
:1001D0008091D00087FFFCCF8AEA88B98091000225
:1001E0009091010285309105A4F42091D600FC0184
:1001F000E95FFD4F208320910C0228B9019690936E
:100200000102809300028530910519F481E080930A
:100210000C02FF91EF919F918F912F910F900FBE44
:100220000F901F9018955F926F927F928F929F927E
:10023000AF92BF92CF92DF92EF92FF920F931F93F4
:10024000DF93CF9300D000D00F92CDB7DEB79C01E3
:10025000FE013196AE014A5F5F4F8F01D9016D916A
:100260009D01D8016D938D01A417B507B9F744E03E
:10027000842E912C8E0E9F1E30E8632E712C2BEA5B
:10028000522E6FEF70E068C0A080AA2DB0E0B22EB1
:100290006301022E02C0D594C7940A94E2F7CA22E1
:1002A000DB22C114D10409F44BC0022E02C0AA0FF4
:1002B000BB1F0A94E2F7022F222351F0E180FF24B2
:1002C000042E02C0F594E7940A94E2F7BE2D01C013
:1002D000B0E0AB0FA525C180B0E0002389F47D011B
:1002E0000B2C02C0F594E7940A94E2F7E082DB015C
:1002F00002C0B595A795BA94E2F7AC21A18320C0BE
:100300007D010B2C02C0F594E7940A94E2F78B016F
:10031000042E02C0000F111F0A94E2F70A210E29D1
:100320000083042E02C0AA0FBB1F0A94E2F78B01C0
:1003300002C015950795BA94E2F70C210A2B0183A8
:100340002F5F3F4F415050402830310509F09CCF7E
:100350003196E815F90529F048E050E020E030E05A
:1003600093CF2D81FC0124830F900F900F900F905D
:100370000F90CF91DF911F910F91FF90EF90DF9041
:10038000CF90BF90AF909F908F907F906F905F9035
:100390000895FC0114820E9413010895CF93DF9306
:1003A000EC010E94130181E09C81911180E0DF91BA
:1003B000CF91089580910C02813029F587E092E079
:1003C0000E94CE01813051F484E78093020282E0E2
:1003D00092E00E94C9010E94040209C086E680934F
:1003E00002020E94040282E092E00E94C90182E0BF
:1003F00092E065E070E00E94C40010920C0210923E
:10040000010210920002089580910A028093030273
:100410008091090280930402809108028093050272
:060420000895F894FFCFDF
:00000001FF
