:100000000C9472000C9484000C9484000C94840072
:100010000C9484000C9484000C9484000C94840050
:100020000C9484000C9484000C9484000C94840040
:100030000C9484000C9484000C9484000C94840030
:100040000C9484000C9484000C9484000C94840020
:100050000C9484000C9484000C9484000C94840010
:100060000C9484000C9484000C9484000C94840000
:100070000C9484000C9484000C9484000C948400F0
:100080000C9484000C9484000C9484000C948400E0
:100090000C9484000C9484000C9484000C948400D0
:1000A0000C9484000C9484000C9484000C948400C0
:1000B0000C9484000C9484000C9484000C948400B0
:1000C0000C9484000C9484000C9484000C944701DC
:1000D0000C9484000C9484000C9484000C94840090
:1000E0000C94840011241FBECFEFD1E2DEBFCDBF40
:1000F00012E0A0E0B2E001C01D92AD30B107E1F71F
:100100000E9486000C946F030C940000DF93CF9341
:10011000CDB7DEB78FEB90E00E94B60087E290E0AB
:100120002FEFFC012083789488E290E02AEAFC011A
:10013000208380910C02882391F087E092E065E0B3
:1001400070E00E94180188E290E02AEAFC01208316
:1001500010920C021092010210920002EACF88E283
:1001600090E025E5FC0120830000E3CFDF93CF93EF
:1001700000D0CDB7DEB79A83898385ED90E02981E1
:100180003A81232F3327FC01208384ED90E02981DD
:10019000FC01208380ED90E020ED30E0F90120812A
:1001A0002260FC01208381ED90E021ED30E0F90137
:1001B0002081286DFC01208382ED90E026E0FC0187
:1001C0002083109201021092000210920C020F90F4
:1001D0000F90CF91DF910895DF93CF930F92CDB71A
:1001E000DEB7898381ED90E021ED30E0F9012081D7
:1001F0002860FC012083000080ED90E0FC018081FC
:10020000882F90E0807290700097B1F386ED90E0B7
:100210002981FC01208381ED90E021ED30E0F9019E
:100220002081286DFC0120830F90CF91DF910895EC
:10023000DF93CF9300D000D000D0CDB7DEB79C8342
:100240008B837E836D831A82198211C08B819C817E
:10025000FC0120818B819C8101969C838B83822F62
:100260000E94EC0089819A8101969A838983298171
:100270003A818D819E812817390744F326960FB65F
:10028000F894DEBF0FBECDBFCF91DF9108951F92CE
:100290000F920FB60F9211242F933F938F939F933A
:1002A000EF93FF93DF93CF93CDB7DEB7000080EDE0
:1002B00090E0FC0180818823D4F780910002909126
:1002C000010285309105FCF48091000290910102B9
:1002D00026ED30E0F9012081895F9D4FFC012083EC
:1002E0008091000290910102019690930102809307
:1002F000000280910002909101028530910519F46D
:1003000081E080930C02CF91DF91FF91EF919F915B
:100310008F913F912F910F900FBE0F901F901895C6
:10032000DF93CF93CDB7DEB72D970FB6F894DEBF2E
:100330000FBECDBF9D878C871A8219821A821982BF
:1003400016C02C853D8589819A81820F931FDC011F
:100350004C919E01295F3F4F89819A81820F931FA3
:10036000FC01408389819A8101969A8389838981DE
:100370009A818530910528F31A82198207C11C825F
:100380001C82FBC09E01295F3F4F89819A81820FA9
:10039000931FDC018C91282F30E08C81482F50E096
:1003A00080E890E0042E02C0959587950A94E2F7C4
:1003B00082239323009709F4DDC09E01295F3F4FFC
:1003C00089819A81820F931FFC018081882F90E0A0
:1003D0002C81222F30E0022E02C0880F991F0A9430
:1003E000E2F78D838C81882311F41B821CC08981E4
:1003F0009A8101969E01295F3F4F820F931FDC0176
:100400008C91882F90E02C81222F30E048E050E042
:10041000FA01E21BF30B9F01022E02C0959587950E
:100420000A94E2F78B839D818B81890F8E839E8155
:100430008BEA89278E838C818823C1F58E81882F52
:1004400090E02C81222F30E002C0959587952A9567
:10045000E2F7482F9E01295F3F4F89819A81820FE1
:10046000931FDC014C9389819A81019629813A81FD
:100470002F5F3F4FAE01495F5F4F240F351FF901DA
:100480002081622F2C81422F50E02FEF30E002C0FC
:10049000359527954A95E2F72623422F9E01295F3D
:1004A0003F4F820F931FDC014C9364C09E01295F74
:1004B0003F4F89819A81820F931FFC018081482FD1
:1004C0008C81882F90E028E030E0281B390B8FEFDB
:1004D00090E002C0880F991F2A95E2F748238E8189
:1004E000882F90E02C81222F30E002C095958795CF
:1004F0002A95E2F7842B482F9E01295F3F4F89817F
:100500009A81820F931FDC014C9389819A81019615
:1005100029813A812F5F3F4FAE01495F5F4F240F22
:10052000351FF9012081622F2C81422F50E02FEFDF
:1005300030E002C0359527954A95E2F7E62FE22391
:100540002E81222F30E04C81442F50E068E070E093
:10055000DB01A41BB50BAD0102C0220F331F4A956E
:10056000E2F72E2B422F9E01295F3F4F820F931FF0
:10057000FC0140838C818F5F8C838C81883008F4F0
:1005800001CF89819A8101969A83898389819A8191
:100590008430910508F4F3CE8C859D8504962B85D7
:1005A000DC012C932D960FB6F894DEBF0FBECDBFA5
:1005B000CF91DF910895DF93CF9300D0CDB7DEB711
:1005C0009A83898389819A810496FC0110828981AA
:1005D0009A810E9490010F900F90CF91DF91089522
:1005E000DF93CF9300D0CDB7DEB79A83898389811B
:1005F0009A810E94900189819A810496FC018081F0
:10060000882311F481E001C080E00F900F90CF911A
:10061000DF910895DF93CF930F92CDB7DEB780912E
:100620000C02813069F587E092E00E94F002898334
:100630008981813081F484E78093020282E092E034
:100640000E94DB020E94440382E092E065E070E0D9
:100650000E9418010FC086E6809302020E944403A4
:1006600082E092E00E94DB0282E092E065E070E0CE
:100670000E94180110920C021092010210920002C6
:100680000F90CF91DF910895DF93CF9300D0CDB736
:10069000DEB781E090E09A83898317C024E030E0E0
:1006A00089819A81A901481B590BCA01895F9D4F15
:1006B000FC01208189819A818E5F9D4FFC012083FE
:1006C00089819A8101969A83898389819A8184306C
:1006D000910524F30F900F90CF91DF910895F89436
:0206E000FFCF4A
:00000001FF
