:100000000C9472000C9493000C9493000C94930045
:100010000C9493000C9493000C9493000C94930014
:100020000C9493000C9493000C9493000C94930004
:100030000C9493000C9493000C9493000C949300F4
:100040000C9493000C9493000C9493000C949300E4
:100050000C9493000C9493000C9493000C949300D4
:100060000C9493000C9493000C9493000C949300C4
:100070000C9493000C9493000C9493000C949300B4
:100080000C9493000C9493000C9493000C949300A4
:100090000C9493000C9493000C9493000C94930094
:1000A0000C9493000C9493000C9493000C94930084
:1000B0000C9493000C9493000C9493000C94930074
:1000C0000C9493000C9493000C9493000C94930064
:1000D0000C9493000C9493000C9493000C94930054
:1000E0000C94930011241FBECFEFD1E2DEBFCDBF31
:1000F00000E00CBF12E0A0E0B2E0EAEBF1E000E0CB
:100100000BBF02C007900D92A030B107D9F712E0E3
:10011000A0E0B2E001C01D92A030B107E1F70E945B
:1001200095000C94DB000C9400008FEF81B987B927
:100130008DB988B98EB98FE590E09093D500809302
:10014000D40086E08093D2008091D00087FF05C064
:100150008091D00080788093D00088E18093D10096
:1001600080E29EE420E731E0F9013197F1F7019751
:10017000D9F785E58093D60020E070EF40E751E0A5
:1001800065E53FE08091D00087FFFCCF2B3609F476
:10019000FFCF2091D60072B988EB9BE0FA0131972E
:1001A000F1F70197D9F78091D00085FFFCCF6093DC
:0A01B000D60032B9E7CFF894FFCF74
:00000001FF
