:100000000C9434000C943E000C943E000C943E0082
:100010000C943E000C943E000C943E000C943E0068
:100020000C943E000C943E000C943E000C943E0058
:100030000C943E000C943E000C943E000C943E0048
:100040000C943E000C943E000C943E000C943E0038
:100050000C943E000C943E000C943E000C943E0028
:100060000C943E000C943E0011241FBECFEFD8E04C
:10007000DEBFCDBF0E9440000C94D0000C94000065
:1000800084B1856084B90E949C002998289A8FEFDA
:1000900093E2A4EF81509040A040E1F700C000003F
:1000A00083E00E94A30081E690E00E94C9002898A6
:1000B000299A8FEF93E2A4EF81509040A040E1F79E
:1000C00000C000002998289A8FEF93E2A4EF815096
:1000D0009040A040E1F700C000008FE00E94A30024
:1000E0002898299A8FEF93E2A4EF81509040A04086
:1000F000E1F700C0000082E690E00E94C900299864
:10010000289A8FEF93E2A4EF81509040A040E1F74E
:1001100000C000000E94A8002898299A8FEF93E25F
:10012000A4EF81509040A040E1F700C0000083E6BA
:1001300090E00E94C900A9CF84B18C6284B9249850
:1001400082E58CBD08958EBD0DB407FEFDCF0895E8
:100150000DB407FEFDCF8EB50895E0ECF0E0808190
:1001600082608083E1ECF0E0808188698083E2EC4A
:10017000F0E08081866080831092C5008FEC8093D0
:10018000C40008958091C00087FFFCCF8091C60015
:1001900008959091C00095FFFCCF8093C60008950C
:0401A000F894FFCF01
:00000001FF
